:020000040800F2
:1000000000000220F10B0008410C0008410C000820
:10001000410C0008410C0008410C000800000000E1
:10002000000000000000000000000000410C00087B
:10003000410C000800000000410C0008410C0008C1
:10004000410C0008410C0008410C0008410C00085C
:10005000410C0008410C0008F5060008410C00089E
:10006000410C0008410C0008410C0008410C00083C
:10007000410C0008410C0008410C0008410C00082C
:10008000410C0008410C0008410C00080000000071
:10009000000000000000000000000000410C00080B
:1000A000410C0008410C0008410C0008410C0008FC
:1000B000410C0008410C0008410C0008410C0008EC
:1000C000410C0008410C0008410C0008410C0008DC
:1000D000410C0008410C0008410C00080000000021
:1000E000410C0008410C0008410C00080000000011
:1000F000000000000000000000000000410C0008AB
:1001000000000000410C0008410C0008410C0008F0
:1001100000000000000000000000000000000000DF
:10012000410C0008410C0008410C0008410C00087B
:10013000410C00080000000000000000000000006A
:10014000000000000000000000000000410C00085A
:10015000410C0008410C0008410C0008410C00084B
:10016000410C0008410C00080000000000000000E5
:10017000000000000000000000000000000000007F
:10018000000000000000000000000000000000006F
:08019000410C0008410C0008BD
:1001A00010B5054C237833B9044B13B10448AFF3B1
:1001B00000800123237010BD6400002000000000B7
:1001C0004820000808B5034B1BB103490348AFF3AF
:1001D000008008BD000000006800002048200008E2
:1001E000A3F5803A704700BF174B002B08BF134B95
:1001F0009D46FFF7F5FF00218B460F461348144A32
:10020000121A00F012FF0E4B002B00D098470D4B36
:10021000002B00D098470020002104000D000D485D
:10022000002802D00C48AFF3008000F0A9FF2000A6
:10023000290000F005FB00F005FD00BF00000800EC
:10024000000000000000000000000000640000202A
:1002500020020020000000000000000080B586B0F1
:1002600000AF786007F10C0307F1130212497868B8
:1002700000F042FE114B1B6BFA7C413A012101FA5E
:1002800002F211460D4A0B431363FB7C413B9B0278
:1002900003F1804303F500337B617B691B68FA68D7
:1002A0005200012101FA02F21A437B691A6000BF71
:1002B0001837BD4680BD00BF00210008003802404D
:1002C00080B586B000AF786007F10C0307F1130228
:1002D0001249786800F010FEFB7C413B9B0203F161
:1002E000804303F500337B610D4B1B6BFA7C413A75
:1002F000012101FA02F21146094A0B4313637B699B
:100300001B68FA685200012101FA02F2D2431A4036
:100310007B691A6000BF1837BD4680BD0021000808
:100320000038024080B586B000AF786007F10C035A
:1003300007F113020C49786800F0DEFDFB7C413BBD
:100340009B0203F1804303F500337B617B695B69AA
:10035000FA68012101FA02F25A407B695A6100BF32
:100360001837BD4680BD00BF0021000880B586B0AB
:1003700000AF786007F10C0307F1130215497868A4
:1003800000F0BAFDFB7C413B9B0203F1804303F587
:1003900000337B61104A137A6FF3030313720F4A21
:1003A000137A43F0010313720C4A137843F00103EC
:1003B00013700B4B5B6C0A4A43F480435364094B44
:1003C0001B68084A43F04003136000BF1837BD465E
:1003D00080BD00BF0021000800380140003C014002
:1003E0000038024000E100E080B485B000AF7860E2
:1003F0000023FB6002E0FB680133FB607B680A4A74
:1004000003FB02F2094BA3FB0213D21A5208134456
:100410009A08FB689A42EED800BF00BF1437BD4669
:100420005DF8047B704700BF0024F4002549922446
:1004300080B485B000AF78600023FB6002E0FB6809
:100440000133FB607B680A4A03FB02F2094BA3FB02
:100450000213D21A520813449A08FB689A42EED843
:1004600000BF00BF1437BD465DF8047B704700BF76
:1004700000A0ACB92549922480B485B000AF786063
:100480000023FB6002E0FB680133FB60FA687B68D5
:100490009A42F8D300BF00BF1437BD465DF8047B15
:1004A000704780B400AF084B5B6C074A43F480434D
:1004B0005364064B1B68054A43F04003136000BFBA
:1004C000BD465DF8047B70470038024000E100E063
:1004D00080B584B000AF786007F1080307F10F0220
:1004E0008149786800F008FDBB680F2B00F2E480BA
:1004F00001A252F823F000BF390500085105000899
:10050000690500088105000899050008B105000883
:10051000C9050008E1050008F905000811060008F2
:10052000290600084106000859060008710600085F
:1005300089060008A1060008FB7B413BDBB26B4A41
:1005400003F00F03D9B2137A61F303031372B3E01C
:10055000FB7B413BDBB2654A03F00F03D9B2137A50
:1005600061F307131372A7E0FB7B413BDBB25F4AE9
:1005700003F00F03D9B2537A61F3030353729BE084
:10058000FB7B413BDBB2594A03F00F03D9B2537AEC
:1005900061F3071353728FE0FB7B413BDBB2534A9D
:1005A00003F00F03D9B2137B61F30303137383E0EA
:1005B000FB7B413BDBB24D4A03F00F03D9B2137B07
:1005C00061F30713137377E0FB7B413BDBB2474AD0
:1005D00003F00F03D9B2537B61F3030353736BE052
:1005E000FB7B413BDBB2414A03F00F03D9B2537BA3
:1005F00061F3071353735FE0FB7B413BDBB23B4A84
:1006000003F00F03D9B2137C61F30303137453E0B7
:10061000FB7B413BDBB2354A03F00F03D9B2137CBD
:1006200061F30713137447E0FB7B413BDBB22F4AB6
:1006300003F00F03D9B2537C61F3030353743BE01F
:10064000FB7B413BDBB2294A03F00F03D9B2537C59
:1006500061F3071353742FE0FB7B413BDBB2234A6A
:1006600003F00F03D9B2137D61F30303137523E085
:10067000FB7B413BDBB21D4A03F00F03D9B2137D74
:1006800061F30713137517E0FB7B413BDBB2174A9D
:1006900003F00F03D9B2537D61F3030353750BE0ED
:1006A000FB7B413BDBB2114A03F00F03D9B2537D10
:1006B00061F30713537500BF0D4B1B68BA68012126
:1006C00001FA02F211460A4A0B431360084B9B6879
:1006D000BA68012101FA02F21146054A0B43936000
:1006E00000BF1037BD4680BD002100080038014022
:1006F000003C014080B500AF024B1B68984700BF2B
:1007000080BD00BF8000002080B500AF00F00AF877
:1007100000F020F800BF80BD80B500AF00F032F8D7
:1007200000BF80BD80B500AF0648FFF797FD0648C3
:10073000FFF794FD0548FFF791FD0548FFF78EFD93
:1007400000BF80BD082100080C210008102100080E
:100750001421000880B500AF0748FFF7B1FD064837
:10076000FFF704FE0448FFF7B3FEFFF79AFE034BC2
:10077000034A1A6000BF80BD1821000880000020D5
:100780001508000880B500AF1B4B1B6803F0010380
:10079000002B2FD0194B1B78032B1BD801A252F82A
:1007A00023F000BFB5070008BD070008C507000813
:1007B000CD0700081248FFF7B5FD0BE01148FFF721
:1007C000B1FD07E01048FFF7ADFD03E00F48FFF76C
:1007D000A9FD00BF094B1B780133DAB2074B1A7031
:1007E000064B1B78032B02D9044B00221A700848D1
:1007F000FFF742FE00BF80BDC0000020C400002003
:10080000082100080C21000810210008142100080C
:10081000400D030080B500AF074B1B680133064A4B
:100820001360064A137D43F00103137544F62060FC
:10083000FFF722FE00BF80BDC0000020003C014049
:1008400080B500AFFFF760FFFFF766FFFCE700BF72
:100850007C220008000000206400002064000020CA
:100860002002002080B586B000AF7860144A154B96
:10087000D31A7B617B693B61134B1B68002B02D150
:10088000114B124A1A60104B1A687B6813443A697C
:100890009A4207D200F06EFC03460C221A604FF019
:1008A000FF3309E0084B1B68FB60074B1A687B6845
:1008B0001344054A1360FB6818461837BD4680BDCF
:1008C0000000022000040000C800002020020020D8
:1008D00080B483B000AF0346FB710F4B1B680E4A18
:1008E00043F0807313600D4B1B680C4A43F0010307
:1008F000136000BF4FF060431B6803F00103002B3F
:10090000F8D04FF06042FB79136000BF0C37BD4652
:100910005DF8047B704700BFFCED00E0000E00E0D6
:1009200080B400AF00BFBD465DF8047B704780B463
:1009300000AF01231846BD465DF8047B704780B5C3
:1009400082B000AF7860396000F014FC03461622D4
:100950001A604FF0FF3318460837BD4680BD80B59A
:1009600082B000AF78604FF0FF317868FFF7E7FFA3
:10097000FEE780B586B000AFF860B9607A6000230A
:100980007B610AE0AFF300800146BB685A1CBA6085
:10099000CAB21A707B6901337B617A697B689A42BB
:1009A000F0DB7B6818461837BD4680BD80B586B041
:1009B00000AFF860B9607A6000237B6109E0BB6832
:1009C0005A1CBA601B781846FFF782FF7B69013317
:1009D0007B617A697B689A42F1DB7B68184618373D
:1009E000BD4680BD80B483B000AF78604FF0FF3368
:1009F00018460C37BD465DF8047B704780B483B061
:100A000000AF786039603B684FF400525A600023B1
:100A100018460C37BD465DF8047B704780B483B040
:100A200000AF7860012318460C37BD465DF8047BA3
:100A3000704780B485B000AFF860B9607A60002379
:100A400018461437BD465DF8047B70470EB480B479
:100A500082B000AF78604FF0FF3318460837BD46CC
:100A60005DF8047B03B0704780B582B000AF78605A
:100A700000F080FB03460A221A604FF0FF3318464D
:100A80000837BD4680BD80B582B000AF786000F009
:100A900071FB034602221A604FF0FF3318460837F5
:100AA000BD4680BD80B483B000AF78604FF0FF33A7
:100AB00018460C37BD465DF8047B704780B483B0A0
:100AC00000AF786039603B684FF400525A600023F1
:100AD00018460C37BD465DF8047B704780B582B080
:100AE00000AF7860396000F045FB03461F221A60B2
:100AF0004FF0FF3318460837BD4680BD80B500AFC4
:100B000000F038FB03460B221A604FF0FF33184603
:100B100080BD80B584B000AFF860B9607A6000F045
:100B200029FB03460C221A604FF0FF33184610379A
:100B3000BD4680BD034613F8012B002AFBD1181ACD
:100B400001387047000000000000000000000000B5
:100B500001F0FF01102A2BDB10F0070F08D010F86E
:100B6000013B013A8B422DD010F0070F42B3F6D172
:100B7000F0B441EA012141EA014122F007047FF08B
:100B800000070023F0E80256083C85EA010586EAE2
:100B9000010685FA47F5A3FA87F586FA47F6A5FA1E
:100BA00087F68EB9EED1F0BC01F0FF0102F007022A
:100BB00032B110F8013B013A83EA010313B1F8D1D5
:100BC0000020704701387047002D06BF35460338B6
:100BD000073815F0010F07D1013015F4807F02BFEF
:100BE000013015F4C03F0130F0BC0138704700BF40
:100BF0000D488546AFF300800C480D490D4A00238F
:100C000002E0D458C4500433C4188C42F9D30A4AC1
:100C10000A4C002301E013600432A242FBD300F02F
:100C2000AFFAFFF70DFEFEE70000022000000020F3
:100C3000640000207C2200086400002020020020C4
:100C4000FEE7000008B5064B044613B10021AFF3E0
:100C50000080044B1B6803B198472046FFF77FFED6
:100C60000000000008020020002310B50446C0E97F
:100C70000033C0E90433836081814366C2818361AC
:100C8000194608225C3000F0D0F90D4B63620D4B21
:100C9000A3620D4BE3620D4B23630D4B24629C4218
:100CA00006D003F16802944202D0D0339C4205D1B1
:100CB00004F15800BDE8104000F087BA10BD00BF35
:100CC000A10F0008C70F0008FF0F0008231000083D
:100CD000D0000020024A0349034800F0EFB800BFEB
:100CE000080000200D1B00081800002041680C4B74
:100CF000994210B5044601D000F008FFA168094BE5
:100D0000994202D0204600F001FFE168064B99426B
:100D100004D02046BDE8104000F0F8BE10BD00BF72
:100D2000D000002038010020A001002008B54B6E43
:100D3000DA0705D48B899B0502D4886D00F049FA47
:100D4000002008BD08B54B6EDA0705D48B899B05DA
:100D500002D4886D00F043FA002008BD10B50B4B9B
:100D60000B4C0C4A1A60204600220421FFF77CFF3E
:100D700004F1680001220921FFF776FF04F1D00099
:100D80000222BDE810401221FFF76EBF08020020CA
:100D9000D0000020D50C0008014800F01ABA00BFAE
:100DA00017020020014800F01ABA00BF1702002005
:100DB000F8B50746FFF7F0FF234B1B680BB9FFF7A9
:100DC000CDFF224ED6E90134013B0FD53568002D09
:100DD00037D14FF4D671384600F06EFA044628BB7E
:100DE0003060FFF7DFFF0C233B601BE0B4F90C50D1
:100DF000D5B9174BE36004F15800656600F0E5F9DA
:100E0000FFF7D0FFC4E90155C4E904552560A56189
:100E10000822294604F15C0000F007F9C4E90D55E9
:100E2000C4E912552046F8BD6834CDE704230560B7
:100E300043600C30A0604FF4D072294600F0F5F802
:100E400034603668BEE700BF0802002008000020BA
:100E50000100FFFF10B50446FFF79EFF236A1BB198
:100E6000BDE81040FFF79EBF044B2362044B1B6894
:100E7000002BF5D1FFF772FFF2E700BFED0C000881
:100E80000802002008B5FFF787FFBDE80840024AC6
:100E90000249002000F012B8080000202D0D0008C3
:100EA00008B5044A0449002000F008F8BDE80840ED
:100EB000FFF778BF08000020450D00082DE9F84332
:100EC0000746884614460026D4E90195B9F1010980
:100ED00005D52468002CF7D13046BDE8F883AB89EE
:100EE000012B07D9B5F90E30013303D02946384616
:100EF000C04706436835E9E70EB430B59CB01FAC77
:100F00004FF4017254F8045BADF81420029006907F
:100F1000FFF710FE0B4B039007900B930A480194C8
:100F200000230F9314934FF6FF73ADF816302A4643
:100F3000234602A9006800F0A3FA1CB0BDE83040C7
:100F400003B07047C30F0008140000200CB470B544
:100F50009CB020AC05464FF40173084654F8046B6E
:100F6000ADF8143002910691FFF7E4FD0B4B0B93A3
:100F700000230F9314934FF6FF7303900790ADF87F
:100F800016303246234602A92846019400F078FA2A
:100F90001CB0BDE8704002B0704700BFC30F00082E
:100FA00010B50C46B1F90E1000F0C0F80028ABBF28
:100FB000636DA3891B1823F48053ACBF6365A381C1
:100FC00010BD002070472DE9F0411F468B89DB05DD
:100FD00005460C46164605D5B1F90E10022300222F
:100FE00000F092F8A389B4F90E1023F48053A38182
:100FF00032463B462846BDE8F04100F0A9B810B59E
:101000000C46B1F90E1000F07FF8431CA38915BF00
:10101000606523F4805343F48053A38118BFA381F8
:1010200010BDB1F90E1000F009B802440346934216
:1010300000D1704703F8011BF9E7000038B5064DF1
:101040000023044608462B60FFF7CCFC431C02D16A
:101050002B6803B1236038BD0C020020294B1B68AC
:10106000834270B504464BD0C369ABB1DB686BB14A
:101070000025E369DB68595900293BD10435802DEF
:10108000F7D1E3692046D96800F0AAF8E369196846
:1010900011B1204600F0A4F8616911B1204600F0BA
:1010A0009FF8E16911B1204600F09AF8216B11B167
:1010B000204600F095F8616B11B1204600F090F8E1
:1010C000A16B11B1204600F08BF8A16C11B1204644
:1010D00000F086F8616C11B1204600F081F8E16AF9
:1010E00011B1204600F07CF8236A4BB12046BDE8E0
:1010F000704018470E68204600F072F83146BBE792
:1011000070BD00BF1400002038B5074D04460846E6
:10111000114600222A601A46FFF78BFC431C02D1BD
:101120002B6803B1236038BD0C02002038B5074D91
:1011300004460846114600222A601A46FFF719FCA9
:10114000431C02D12B6803B1236038BD0C02002080
:1011500038B5074D04460846114600222A601A4653
:10116000FFF724FC431C02D12B6803B1236038BD78
:101170000C020020014B1868704700BF14000020CB
:1011800070B50D4D0D4C641BA4100026A64209D16C
:101190000B4D0C4C00F096FF641BA4100026A642D9
:1011A00005D170BD55F8043B98470136EEE755F878
:1011B000043B98470136F2E77422000874220008C5
:1011C0007422000878220008704770477047704703
:1011D0007047704701207047012070477047704783
:1011E00038B50546002941D051F8043C0C1F002BAE
:1011F000B8BFE41800F0E0F81D4A136833B9636023
:1012000014602846BDE8384000F0DCB8A34208D995
:10121000206821188B4201BF19685B68091821609A
:10122000EDE71A465B680BB1A342FAD91168501872
:10123000A0420BD120680144501883421160E0D1D4
:1012400018685B68536008441060DAE702D90C2321
:101250002B60D6E7206821188B4204BF19685B68B1
:10126000636004BF091821605460CAE738BD00BF3D
:101270001C02002070B50F4E0C463168054611B9AE
:1012800000F07AFD30602146284600F075FD431CD1
:1012900003D14FF0FF34204670BDC41C24F003047A
:1012A000A042F8D0211A284600F066FD0130F2D1A4
:1012B000EFE700BF180200202DE9F843CD1C25F010
:1012C000030508350C2D38BF0C25002D064601DB23
:1012D000A94204D90C2333600020BDE8F883DFF86D
:1012E000D48000F069F8D8F800301C4644BB294689
:1012F0003046FFF7BFFF431C044658D1D8F80040E2
:101300002746002F43D1002C4BD023683946304666
:1013100004EB030900F030FD814542D121686D1ACC
:1013200029463046FFF7A6FF01303AD023682B4408
:101330002360D8F800305A6862BBC8F800700FE02C
:101340002268521B20D40B2A17D96119A3422560A9
:1013500018BF5960636808BFC8F8001062514B603D
:10136000304600F02FF804F10B00231D20F0070099
:10137000C21A1CBF1B1AA350AFE76268A3420CBF7E
:10138000C8F800205A60EBE723466468AEE73C46A5
:101390007F68B6E71A465B68A342FBD1002353601F
:1013A000DEE70C233360304600F00CF894E705606C
:1013B000D6E700BF1C0200200148FFF70ABF00BFAC
:1013C000140200200148FFF70ABF00BF14020020EA
:1013D00038B54B1C144603D14FF0FF35284638BDB5
:1013E000938923F0200393815368526BCDB28AB165
:1013F000A26B9A4208DD23685A1E226003F8015C42
:10140000636801336360E9E7214600F0F4FB0028DC
:10141000F1D0E1E72169226841B1914206D212F888
:10142000011CA94202D1013A2260EAE7C4E90F2374
:1014300004F1440363630323A363234603F8465F75
:1014400023600123DEE710B50C46496B69B104F156
:101450004403994201D0FFF7C3FE236C6360002070
:10146000606313B1E36B236010BD23692360002325
:101470006360A38943F02003A3814FF0FF30F3E7BB
:101480002DE9F0470C46ADF5227D0021CDE9441150
:10149000A549A0910DF10408A449A54FCDF81881E4
:1014A0000646A19100931378002B00F05881F95C57
:1014B00011F0080102F1010519D06368002B0FDD5E
:1014C00023681A78BA5C120701D42A46EBE7459ADA
:1014D0000132459262680133013A62602360ECE7B1
:1014E000A19B2146304698470028E9D0EDE7252BFF
:1014F00012D099466368002B40F3938022681378DA
:101500004B4540F02C816368013B6360459B013291
:10151000013322604593D8E74191439153782A2BB8
:1015200002BF1023951C41930A22A94619F8011BFA
:10153000A1F13003092B1ED9DFF8F8A10322504690
:10154000FFF706FB38B1419AA0EB0A000123834064
:10155000134341934D4615F8013B782B06D8572B82
:1015600010D8252BC5D057D8002B65D0032347931F
:101570000A23429378E0439B02FB031130394391E5
:101580004D46D2E7A3F15802202AEFD801A151F825
:1015900022F000BF471600086D1500086D15000801
:1015A000A11600086D1500086D1500086D150008DE
:1015B0006D1500086D1500086D1500086D15000803
:1015C000B71600089D1600081F1600081F16000811
:1015D0001F1600086D150008591600086D15000843
:1015E0006D1500086D1500086D150008C716000878
:1015F000611600083F1600086D1500086D150008FB
:10160000C31600086D1500089D1600086D1500082A
:101610006D15000847160008453B022BA6D8052388
:1016200021E0A19B21463046984700283FF466AF51
:101630004498002840F08B804FF0FF308BE0419AB7
:1016400042F020024192419A42F4007241921022EB
:101650006E2B429202D905E000234293032302E05D
:1016600008234293042347936368002B39DD419B91
:10167000590604D423681A78BA5C120738D4479BF9
:10168000022B47DC6B46224641A9304600F06CF83D
:10169000012864D002287FF418AFC9E70A22D7E7EF
:1016A0002946404600F06EFA419B43F040034193C7
:1016B00005460123D7E7419B43F0400341930023B4
:1016C000D1E70223CFE74198C3063FF5FEAE009B6A
:1016D000459A191D00911B68C0074CBF1A801A60FB
:1016E000F3E6A19B2146304698470028BFD09FE7EC
:1016F000459A013245926268013A002A626002DD31
:1017000001332360B6E7A19B214630469847002865
:10171000B0D08DE7042B0FDC6B46224641A9304642
:1017200000F07CF8B4E700BFD113000847140008AC
:101730006C2100084C2100080A4B002B3FF4C5AE79
:101740006B46224641A93046AFF30080A0E7A3894B
:101750005B063FF571AF0DF5227DBDE8F08744983B
:10176000F9E700BF000000002DE9F84315468A683C
:1017700080460C4632B98A69002A14BF4FF0FF3206
:1017800001228A602268DFF89090D1065FBF1A6854
:10179000111D196016680027A06988B1012807D1BA
:1017A0002B681A7863699B5C53B9002F31D022E013
:1017B000022820D12B681B7819F803301B071AD494
:1017C0002368DA065EBF2B681B7806F8013B2A689F
:1017D0006B6801322A60A268013B013A6B600137F5
:1017E000A26042B1002BD7DCD4F8803129464046B4
:1017F00098470028D0D0236813F0100305D1E26881
:101800000132E260A26902B1337023693B44236173
:101810000020BDE8F88300BF6C2100082DE9F04FDF
:101820009846744B0C468246164693E8070087B0EC
:1018300003AB83E80700704BA169704A032908BF16
:101840001A46A36801925A1EB2F5AE7F88BF6FF4A4
:10185000AE75274682BF03EB050940F25D13A36016
:1018600057F81C3B43F4506398BF4FF000092360C6
:101870003D464FF0000B316803AB097853F82B005D
:101880000222FFF765F928B3BBF1010F59D1626855
:101890002AB92268082142F400726160226022683D
:1018A00022F4A0622260A268511EA16092B1326847
:1018B000511C3160127805F8012B7268013A002A38
:1018C000726007DCD4F880213146504690470028EA
:1018D00040F085800BF1010BBBF1030FCBD16368A6
:1018E0000BB90A236360636845496069C91A00F04F
:1018F00049F94FF0000BA3682268002B3DD03168F6
:10190000606991F800C010F80C00002835D0BCF1D7
:10191000300F24D1100522D50BF1010BB9F1000FC6
:1019200003D0013309F1FF39A3607368013B002B39
:1019300073601BDD336801333360A368013BA36030
:10194000D9E7BBF1020FAED1226802F4C061B1F554
:10195000007FBFD11021616042F48072A2E722F4BF
:10196000106222600B7805F8013BDEE7D4F8803185
:101970003146504698470028DFD02368D9050DD559
:10198000BD4209D915F8011CD4F87C3132465046C5
:10199000984705F1FF394D46BD4228D0226812F024
:1019A000100213D12A706368019E39465046B04731
:1019B000D8F8003021681A1DC8F8002011F0200F57
:1019C0001B680FD01860E3680133E3602369ED1BE7
:1019D0005D442B442361002007B0BDE8F08F4FF039
:1019E000000BCAE7CA074CBF18801860EBE701205C
:1019F000F2E700BF1C210008051F00080D200008A9
:101A000060210008B1F90C202DE9F04116070546C8
:101A10000C4654D44B68002B02DC0B6C002B48DDC9
:101A2000E66A002E45D0002312F480522F68216A06
:101A30002B6030D0626DA389590705D56368D21A2F
:101A4000636B0BB1236CD21A0023E66A216A284625
:101A5000B047431CA38906D129681D292BD82A4ADF
:101A60000A41D60727D400226260D9042269226085
:101A700004D5421C01D12B6803B96065616B2F60EE
:101A8000B9B104F14403994202D02846FFF7A8FBFC
:101A9000002363630DE001232846B0470246501C33
:101AA000C9D12B68002BC6D01D2B01D0162B1ED1FF
:101AB0002F60002022E043F040031BB21BE00F69BF
:101AC000002FF6D093070E6808BF4B690F6018BF50
:101AD0000023A6EB07088B60B8F1000FE9DD216A4F
:101AE000A66A43463A462846B047002808DCB4F9BF
:101AF0000C3043F04003A3814FF0FF30BDE8F0818C
:101B00000744A8EB0008E7E7FEFFBFDF38B50B6925
:101B100005460C4613B90025284638BD18B1036A9E
:101B20000BB9FFF797F9B4F90C30002BF3D0626EC4
:101B3000D00704D4990502D4A06DFFF74AFB2846CC
:101B40002146FFF75FFF636EDA070546E4D4A389F9
:101B50009B05E1D4A06DFFF742FBDDE7014620B90C
:101B6000044A05490548FFF7A9B9054B1868FFF76E
:101B7000CDBF00BF080000200D1B0008180000208A
:101B80001400002070B50B7804465E2B0BBF4B7819
:101B90004A1C8A1C002108BF0121013804F1FF05FD
:101BA00000F8011FA842FBD10BB9501E70BD81F097
:101BB0000101E1541046024612F8015B2D2D05D0BB
:101BC0005D2D16D0002DF1D02B46F2E746785D2E24
:101BD000FAD0B342F8DC02301A4601329642A154E0
:101BE000FBDCF21A013A5D1CB342A8BF0022AB181D
:101BF000E1E71046DAE72DE9F0410C46496B04F1C4
:101C0000440399421DD14FF48061FFF755FB18B989
:101C10004FF0FF30BDE8F0814FF48063A36394F888
:101C20004630606380F8FF3394F8453080F8FE3327
:101C300094F8443080F8FD3300F2FD30206000203D
:101C4000E8E7A66B77003A4600F0B4F805460028AE
:101C5000DED000EB060801463246404600F09CF814
:101C6000C4E90D57C4F80080E9E770B50D46691C5A
:101C7000064614461ED018B1036A0BB9FFF7EAF8FE
:101C8000636EDA0705D4A3899B0502D4A06DFFF724
:101C9000A0FAB4F90C3023F020025807A28122D414
:101CA000D9060AD4626ED20704D4990502D4A06D75
:101CB000FFF795FA4FF0FF3546E01B070FD5214699
:101CC0003046FFF723FF20B1636ED807F2D4A38913
:101CD000EBE7A389A06023F00803A381A061A38997
:101CE00043F00403A381636B6268EDB2D3B1A36BCD
:101CF000934205DC21463046FFF77DFF0028E3D103
:101D000023685A1E226003F8015C63680133636034
:101D1000636EDA0718D4A3899B0515D4A06DFFF76D
:101D20005EFA11E0616E2069236801F0010168B17B
:101D300098420BD213F8010CA84207D1013B0132A3
:101D4000236062600029E6D0284670BDC4E90F32E6
:101D500004F1440363630323A363234603F8465F4C
:101D6000236001236360EDE7024B0A4601461868D1
:101D7000FFF77BBF1400002038B5064D0023044652
:101D800008462B60FEF76EFD431C02D12B6803B1A1
:101D9000236038BD0C0200200A44914200F1FF3359
:101DA00000D1704710B511F8014B03F8014F914273
:101DB000F9D110BD2DE9F041804615460C4621B9F8
:101DC000BDE8F0411146FFF777BA2AB9FFF708FAE4
:101DD00000242046BDE8F08100F02EF98542064639
:101DE00002D8B5EB500FF4D829464046FFF764FA05
:101DF00007460028ECD0B5422A46214628BF324685
:101E0000FFF7CAFF21464046FFF7EAF93C46E0E704
:101E1000242B2DE9F0478646904601D8012B06D1A8
:101E2000FFF7A8F9162303600020BDE8F0873448C7
:101E30000D462A4615F8014B065D16F00806F8D146
:101E40002D2C2DD12C780126951C33F0100209D1B0
:101E5000302C2AD12A7802F0DF02582A25D16C785A
:101E60001023023506F1004C0CF1FF3C0022BCFBB4
:101E7000F3F9104603FB19CAA4F13007092F1BD848
:101E80003C46A34227DD571C07D0814520D301D112
:101E9000A2451DDB00FB0340012215F8014BEBE7D7
:101EA0002B2C04BF2C78951CCFE7002BDAD1302CDB
:101EB0000CBF08230A23D5E7A4F14107192F01D845
:101EC000373CDEE7A4F16107192F04D8573CD8E767
:101ED0004FF0FF32E1E7531C08D12223CEF8003047
:101EE0006046B8F1000FA0D0691E06E006B140427E
:101EF000B8F1000F99D0002AF6D1C8F8001094E785
:101F00006C210008FFF784BF13460A4601460248C9
:101F10000068FFF77DBF00BF1400002013460A468B
:101F2000014602480068FFF773BF00BF140000209D
:101F30002DE9F043344E86460D46284615F8014BF0
:101F4000375D17F00807F8D12D2C2FD12C780127F9
:101F5000851C33F0100009D1302C2CD1287800F0EA
:101F6000DF00582827D16C78102302354FF0FF3856
:101F70000026B8FBF3F803FB08F96FEA09093046BD
:101F8000A4F1300CBCF1090F1CD86446A3422ADD31
:101F9000B6F1FF3F07D0804522D301D1A1451FDB19
:101FA00000FB0340012615F8014BE9E72B2C04BF89
:101FB0002C78851CCDE7002BD8D1302C0CBF082302
:101FC0000A23D3E7A4F1410CBCF1190F01D8373C27
:101FD000DCE7A4F1610CBCF1190F04D8573CD5E73C
:101FE0004FF0FF36DFE7731C06D12223CEF8003016
:101FF000304632B9BDE8F08307B14042002AF9D03B
:1020000006B1691E1160F5E76C210008FFF790BF6B
:1020100013460A46014602480068FFF789BF00BF21
:102020001400002013460A46014602480068FFF7E4
:102030007FBF00BF1400002051F8043C181F002B84
:10204000BCBF0B58C0187047100000000000000013
:10205000017A5200027C0E011B0C0D0010000000E2
:1020600018000000D0EAFFFF100000000000000090
:102070001000000000000000017A5200027C0E01F6
:102080001B0C0D003800000018000000C4EAFFFF20
:102090009E00000000510E10840485038602870113
:1020A0005BC7C6C5C40E004C0A420B0A420B0E1099
:1020B000840485038602870151C7C6C5C40E00008B
:1020C00000000000F8B500BFF8BC08BC9E46704791
:0C20D000F8B500BFF8BC08BC9E46704785
:1020DC003D400B4010402640354003400640144024
:1020EC000E400D4025401240284002401840094047
:1020FC000A400000256325640000000044313200D2
:10210C004431330044313400443135004130000057
:10211C006221000865210008682100083D400B4041
:10212C001040264035400340064014400E400D4000
:10213C002540124028400240184009400A40000047
:10214C00686C4C00412D46612D6638393031323384
:10215C00343536375D002B2D0030300078580000B8
:10216C00202020202020202020282828282820203B
:10217C002020202020202020202020202020202053
:10218C0088101010101010101010101010101010CB
:10219C0004040404040404040404101010101010AB
:1021AC001041414141414101010101010101010184
:1021BC0001010101010101010101011010101010B8
:1021CC001042424242424202020202020202020255
:1021DC00020202020202020202020210101010207D
:1021EC0000000000000000000000000000000000E3
:1021FC0000000000000000000000000000000000D3
:10220C0000000000000000000000000000000000C2
:10221C0000000000000000000000000000000000B2
:10222C0000000000000000000000000000000000A2
:10223C000000000000000000000000000000000092
:10224C000000000000000000000000000000000082
:10225C000000000000000000000000000000000072
:08226C0074DFFF7F0100000098
:04227400C501000898
:04227800A1010008B8
:10227C0000000000CC000020000000000300000063
:10228C00D00000201800002000000000D00000202A
:10229C0038010020A0010020000000000000000018
:1022AC000000000000000000000000000000000022
:1022BC000000000000000000000000000000000012
:1022CC000000000000000000000000000000000002
:0422DC0000000000FE
:0400000508000BF1F3
:00000001FF
